:100000000C945D000C9485000C9485000C94850084
:100010000C9485000C9485000C9485000C9485004C
:100020000C9485000C9485000C9485000C9485003C
:100030000C9485000C9485000C9485000C9485002C
:100040000C941E090C9485000C94930A0C94D60A07
:100050000C9485000C9485000C9485000C9485000C
:100060000C9485000C94850000000007000201003C
:100070000003040600000000000000000102040864
:100080001020408001020408102001020408102002
:10009000040404040404040402020202020203032E
:1000A0000303030300000000250028002B000000CC
:1000B0000000240027002A00960B11241FBECFEF5A
:1000C000D8E0DEBFCDBF11E0A0E0B1E0EAE7F8E1A3
:1000D00002C005900D92AE31B107D9F721E0AEE133
:1000E000B1E001C01D92A33FB207E1F710E0CDE5FA
:1000F000D0E004C02197FE010E94260CCC35D10728
:10010000C9F70E94EC090C943B0C0C94000040E8E9
:1001100055E260E070E089E491E00E94110B61E03B
:1001200080910B010E94B20861E0809109010E9458
:10013000B20861E0809107010E94B20861E08091FD
:1001400005010E94B20861E0809103010E94B2089B
:100150002091000130910101E2E2F1E080E090E0C5
:100160008217930724F4119211920196F9CF089502
:10017000CF93DF93C3E0D1E061E088810E94EE0875
:1001800060E088810E94EE0868EE73E080E090E015
:10019000DF91CF910C948B09CF92DF92EF92FF9277
:1001A0000F931F93CF93DF93CBE0D1E061E0888181
:1001B0000E94EE0885E0C82E81E0D82E61E0F601AD
:1001C00080810E94EE0897E0E92E91E0F92E61E02F
:1001D000F70180810E94EE0809E011E061E0F8017A
:1001E00080810E94EE0868EE73E080E090E00E945B
:1001F0008B0960E0F60180810E94EE0860E0F70163
:1002000080810E94EE0860E0F80180810E94EE0883
:1002100060E088810E94EE0868EE73E080E090E084
:10022000DF91CF911F910F91FF90EF90DF90CF90D2
:100230000C948B09CF93DF93C5E0D1E061E0888116
:100240000E94EE0868EE73E080E090E00E948B0967
:1002500060E088810E94EE0868EE73E080E090E044
:10026000DF91CF910C948B09CF92DF92EF92FF92A6
:100270000F931F93CF93DF93CBE0D1E061E08881B0
:100280000E94EE0883E0C82E81E0D82E61E0F601DE
:1002900080810E94EE0897E0E92E91E0F92E61E05E
:1002A000F70180810E94EE0809E011E061E0F801A9
:1002B00080810E94EE0868EE73E080E090E00E948A
:1002C0008B0960E0F60180810E94EE0860E0F70192
:1002D00080810E94EE0860E0F80180810E94EE08B3
:1002E00060E088810E94EE0868EE73E080E090E0B4
:1002F000DF91CF911F910F91FF90EF90DF90CF9002
:100300000C948B090F931F93CF93DF9305E011E0BB
:1003100061E0F80180810E94EE08C3E0D1E061E075
:1003200088810E94EE0868EE73E080E090E00E9411
:100330008B0960E0F80180810E94EE0860E088810E
:100340000E94EE0868EE73E080E090E0DF91CF91CC
:100350001F910F910C948B09EF92FF920F931F93B3
:10036000CF93DF93CBE0D1E061E088810E94EE087B
:1003700087E0E82E81E0F82E61E0F70180810E949D
:10038000EE0809E011E061E0F80180810E94EE08CA
:1003900068EE73E080E090E00E948B0960E0F70176
:1003A00080810E94EE0860E0F80180810E94EE08E2
:1003B00060E088810E94EE0868EE73E080E090E0E3
:1003C000DF91CF911F910F91FF90EF900C948B09CB
:1003D000CF93DF93C7E0D1E061E088810E94EE080F
:1003E00068EE73E080E090E00E948B0960E0888115
:1003F0000E94EE0868EE73E080E090E0DF91CF911C
:100400000C948B09CF92DF92EF92FF920F931F9380
:10041000CF93DF93CBE0D1E061E088810E94EE08CA
:1004200089E0C82E81E0D82E61E0F60180810E942B
:10043000EE0895E0E92E91E0F92E61E0F701808168
:100440000E94EE0803E011E061E0F80180810E9463
:10045000EE0868EE73E080E090E00E948B0960E0B7
:10046000F60180810E94EE0860E0F70180810E9421
:10047000EE0860E0F80180810E94EE0868EE73E00B
:1004800080E090E00E948B0960E088810E94EE0885
:1004900068EE73E080E090E0DF91CF911F910F91C3
:1004A000FF90EF90DF90CF900C948B090F931F93E8
:1004B000CF93DF9307E011E061E0F80180810E94B3
:1004C000EE08C3E0D1E061E088810E94EE0868EEAA
:1004D00073E080E090E00E948B0960E0F801808189
:1004E0000E94EE0860E088810E94EE0868EE73E0EA
:1004F00080E090E0DF91CF911F910F910C948B09D8
:10050000EF92FF920F931F93CF93DF93CBE0D1E055
:1005100061E088810E94EE0889E0E82E81E0F82EF3
:1005200061E0F70180810E94EE0805E011E061E0E2
:10053000F80180810E94EE0868EE73E080E090E0B0
:100540000E948B0960E0F70180810E94EE0860E064
:10055000F80180810E94EE0860E088810E94EE0828
:1005600068EE73E080E090E0DF91CF911F910F91F2
:10057000FF90EF900C948B090F931F93CF93DF9311
:1005800007E011E061E0F80180810E94EE08C5E01B
:10059000D1E061E088810E94EE0868EE73E080E0BF
:1005A00090E00E948B0960E0F80180810E94EE08D3
:1005B00060E088810E94EE0868EE73E080E090E0E1
:1005C000DF91CF911F910F910C948B09EF92FF92C5
:1005D0000F931F93CF93DF93CBE0D1E061E088814D
:1005E0000E94EE0889E0E82E81E0F82E61E0F70134
:1005F00080810E94EE0803E011E061E0F801808153
:100600000E94EE0868EE73E080E090E00E948B09A3
:1006100060E0F70180810E94EE0860E0F8018081CF
:100620000E94EE0860E088810E94EE0868EE73E0A8
:1006300080E090E0DF91CF911F910F91FF90EF90BC
:100640000C948B090F931F93CF93DF9307E011E076
:1006500061E0F80180810E94EE08C5E0D1E061E030
:1006600088810E94EE0861E0809103010E94EE08FB
:1006700068EE73E080E090E00E948B0960E0F80192
:1006800080810E94EE0860E088810E94EE0860E0B0
:1006900088810E94EE0868EE73E080E090E0DF91D0
:1006A000CF911F910F910C948B090F931F93CF93B0
:1006B000DF93CBE0D1E061E088810E94EE0809E0A1
:1006C00011E061E0F80180810E94EE0868EE73E0BD
:1006D00080E090E00E948B0960E0F80180810E9438
:1006E000EE0860E088810E94EE0868EE73E080E02A
:1006F00090E0DF91CF911F910F910C948B09CF93D4
:10070000DF93C9E0D1E061E088810E94EE0868EEE5
:1007100073E080E090E00E948B0960E088810E9495
:10072000EE0868EE73E080E090E0DF91CF910C94EA
:100730008B09EF92FF920F931F93CF93DF930BE000
:1007400011E061E0F80180810E94EE0887E0E82E68
:1007500081E0F82E61E0F70180810E94EE08C5E09B
:10076000D1E061E088810E94EE0861E080910301A0
:100770000E94EE0868EE73E080E090E00E948B0932
:1007800060E0F70180810E94EE0860E088810E94AD
:10079000EE0860E088810E94EE0860E0F801808148
:1007A0000E94EE0868EE73E080E090E0DF91CF9168
:1007B0001F910F91FF90EF900C948B090F931F9353
:1007C000CF93DF9309E011E061E0F80180810E949E
:1007D000EE08C3E0D1E061E088810E94EE0868EE97
:1007E00073E080E090E00E948B0960E0F801808176
:1007F0000E94EE0860E088810E94EE0868EE73E0D7
:1008000080E090E0DF91CF911F910F910C948B09C4
:10081000EF92FF920F931F93CF93DF93CBE0D1E042
:1008200061E088810E94EE0887E0E82E81E0F82EE2
:1008300061E0F70180810E94EE0805E011E061E0CF
:10084000F80180810E94EE0868EE73E080E090E09D
:100850000E948B0960E0F70180810E94EE0860E051
:10086000F80180810E94EE0860E088810E94EE0815
:1008700068EE73E080E090E0DF91CF911F910F91DF
:10088000FF90EF900C948B090F931F93CF93DF93FE
:1008900009E011E061E0F80180810E94EE08C5E006
:1008A000D1E061E088810E94EE0868EE73E080E0AC
:1008B00090E00E948B0960E0F80180810E94EE08C0
:1008C00060E088810E94EE0868EE73E080E090E0CE
:1008D000DF91CF911F910F910C948B09EF92FF92B2
:1008E0000F931F93CF93DF93CBE0D1E061E088813A
:1008F0000E94EE0887E0E82E81E0F82E61E0F70123
:1009000080810E94EE0803E011E061E0F80180813F
:100910000E94EE0868EE73E080E090E00E948B0990
:1009200060E0F70180810E94EE0860E0F8018081BC
:100930000E94EE0860E088810E94EE0868EE73E095
:1009400080E090E0DF91CF911F910F91FF90EF90A9
:100950000C948B09EF92FF920F931F93CF93DF9329
:1009600089E0E82E81E0F82E61E0F70180810E94A5
:10097000EE0805E011E061E0F80180810E94EE08D8
:10098000C3E0D1E061E088810E94EE0868EE73E088
:1009900080E090E00E948B0960E0F70180810E9476
:1009A000EE0860E0F80180810E94EE0861E0888135
:1009B0000E94EE0868EE73E080E090E0DF91CF9156
:1009C0001F910F91FF90EF900C948B090F931F9341
:1009D000CF93DF93CBE0D1E061E088810E94EE0805
:1009E00007E011E061E0F80180810E94EE0868EE06
:1009F00073E080E090E00E948B0960E0F801808164
:100A00000E94EE0860E088810E94EE0868EE73E0C4
:100A100080E090E0DF91CF911F910F910C948B09B2
:100A20000F931F93CF93DF9309E011E061E0F8018A
:100A300080810E94EE08C7E0D1E061E088810E94D9
:100A4000EE0868EE73E080E090E00E948B0960E0C1
:100A5000F80180810E94EE0860E088810E94EE0823
:100A600068EE73E080E090E0DF91CF911F910F91ED
:100A70000C948B09EF92FF920F931F93CF93DF9308
:100A8000CBE0D1E061E088810E94EE0885E0E82EAD
:100A900081E0F82E61E0F70180810E94EE0803E01A
:100AA00011E061E0F80180810E94EE0868EE73E0D9
:100AB00080E090E00E948B0960E0F70180810E9455
:100AC000EE0860E0F80180810E94EE0860E0888115
:100AD0000E94EE0868EE73E080E090E0DF91CF9135
:100AE0001F910F91FF90EF900C948B09EF92FF9262
:100AF0000F931F93CF93DF9389E0E82E81E0F82EC8
:100B000061E0F70180810E94EE0807E011E061E0FA
:100B1000F80180810E94EE08C3E0D1E061E08881A5
:100B20000E94EE0868EE73E080E090E00E948B097E
:100B300060E0F70180810E94EE0860E0F8018081AA
:100B40000E94EE0860E088810E94EE0868EE73E083
:100B500080E090E0DF91CF911F910F91FF90EF9097
:100B60000C948B090F931F93CF93DF93CBE0D1E0CD
:100B700061E088810E94EE0805E011E061E0F80183
:100B800080810E94EE0860E0F80180810E94EE08FA
:100B900060E088810E94EE0868EE73E080E090E0FB
:100BA000DF91CF911F910F910C948B09EF92FF92DF
:100BB0000F931F93CF93DF9389E0E82E81E0F82E07
:100BC00061E0F70180810E94EE0807E011E061E03A
:100BD000F80180810E94EE08C5E0D1E061E08881E3
:100BE0000E94EE0868EE73E080E090E00E948B09BE
:100BF00060E0F70180810E94EE0860E0F8018081EA
:100C00000E94EE0860E088810E94EE0868EE73E0C2
:100C100080E090E0DF91CF911F910F91FF90EF90D6
:100C20000C948B090F931F93CF93DF93CBE0D1E00C
:100C300061E088810E94EE0803E011E061E0F801C4
:100C400080810E94EE0868EE73E080E090E00E94F0
:100C50008B0960E0F80180810E94EE0860E08881E5
:100C60000E94EE0868EE73E080E090E0DF91CF91A3
:100C70001F910F910C948B09CF92DF92EF92FF920C
:100C80000F931F93CF93DF9389E0C82E81E0D82E76
:100C900061E0F60180810E94EE0897E0E92E91E084
:100CA000F92E61E0F70180810E94EE0805E011E075
:100CB00061E0F80180810E94EE08C3E0D1E061E0CC
:100CC00088810E94EE0868EE73E080E090E00E9468
:100CD0008B0960E0F60180810E94EE0860E0F70178
:100CE00080810E94EE0860E0F80180810E94EE0899
:100CF00060E088810E94EE0868EE73E080E090E09A
:100D0000DF91CF911F910F91FF90EF90DF90CF90E7
:100D10000C948B09AF92BF92CF92DF92EF92FF9229
:100D20000F931F93CF93DF93CBE0D1E061E08881F5
:100D30000E94EE0889E0A82E81E0B82E61E0F5015E
:100D400080810E94EE0897E0C92E91E0D92E61E0E3
:100D5000F60180810E94EE0825E0E22E21E0F22ECD
:100D600061E0F70180810E94EE0803E011E061E09C
:100D7000F80180810E94EE0868EE73E080E090E068
:100D80000E948B0960E0F50180810E94EE0860E01E
:100D9000F60180810E94EE0860E0F70180810E94E8
:100DA000EE0860E0F80180810E94EE0860E0888132
:100DB0000E94EE0868EE73E080E090E0DF91CF9152
:100DC0001F910F91FF90EF90DF90CF90BF90AF9069
:100DD0000C948B0980910201813421F40E94B800A7
:100DE0000C94CC00823421F40E941A010C9434013A
:100DF000833421F40E9482010C94AC01843421F4E8
:100E00000E94E8010C940202853421F40E945602EB
:100E10000C948002863421F40E94BC020C94E602F9
:100E2000873421F40E9422030C945503883421F462
:100E30000E947F030C949903893421F40E94DE03FD
:100E40000C9408048A3421F40E9444040C946E0427
:100E50008B3421F40E94AA040C94E6048C3421F40F
:100E60000E9410050C943A058D3421F40E947605F9
:100E70000C94B2058E3421F40E94D6050C9412060F
:100E80008F3421F40E943C060C948A0608950F9337
:100E90001F93CF93DF9302E211E0C0E0D0E0809196
:100EA000000190910101C817D90754F4F80160813D
:100EB0000E5F1F4F89E491E00E94500A2196EFCF08
:100EC0006091200189E491E0DF91CF911F910F9112
:100ED0000C94500A89E491E00E94F909892B09F4E5
:100EE00015C189E491E00E94250A90931F01809327
:100EF0001E0197FD0DC18134910569F481E4809351
:100F00000201809122019091230101969093230187
:100F1000809322010FC082349105B9F482E480935A
:100F20000201809124019091250101969093250161
:100F3000809324018091200190912101019690934A
:100F40002101809320010E94EA0680911E01909168
:100F50001F018334910569F483E480930201809139
:100F600026019091270101969093270180932601F5
:100F7000BFC08434910569F484E4809302018091B8
:100F800028019091290101969093290180932801CD
:100F9000AFC08534910569F485E4809302018091A6
:100FA0002A0190912B01019690932B0180932A01A5
:100FB0009FC08634910569F486E480930201809194
:100FC0002C0190912D01019690932D0180932C017D
:100FD0008FC08734910569F487E480930201809182
:100FE0002E0190912F01019690932F0180932E0155
:100FF0007FC08834910569F488E480930201809170
:10100000300190913101019690933101809330012C
:101010006FC08934910569F489E48093020180915D
:101020003201909133010196909333018093320104
:101030005FC08A34910569F48AE48093020180914B
:1010400034019091350101969093350180933401DC
:101050004FC08B34910569F48BE480930201809139
:1010600036019091370101969093370180933601B4
:101070003FC08C34910569F48CE480930201809127
:10108000380190913901019690933901809338018C
:101090002FC08D34910569F48DE480930201809115
:1010A0003A0190913B01019690933B0180933A0164
:1010B0001FC08E34910569F48EE480930201809103
:1010C0003C0190913D01019690933D0180933C013C
:1010D0000FC08F349105B1F48FE4809302018091A9
:1010E0003E0190913F01019690933F0180933E0114
:1010F000809120019091210101969093210180938C
:1011000020010895C09721F40C9447070C94EA0637
:101110000895833081F028F4813099F08230A1F075
:1011200008958630A9F08730B9F08430D1F48091E9
:1011300080008F7D03C0809180008F778093800036
:10114000089584B58F7702C084B58F7D84BD0895DE
:101150008091B0008F7703C08091B0008F7D809325
:10116000B0000895CF93DF9390E0FC01E458FF4F67
:101170002491FC01E057FF4F8491882361F190E0B6
:10118000880F991FFC01E255FF4FC591D491FC01D6
:10119000EC55FF4FA591B491611109C09FB7F89428
:1011A0008881209582238883EC912E230BC06230A6
:1011B00061F49FB7F8943881822F809583238883C8
:1011C000EC912E2B2C939FBF06C08FB7F894E8812B
:1011D0002E2B28838FBFDF91CF9108951F93CF933C
:1011E000DF93282F30E0F901E859FF4F8491F9018E
:1011F000E458FF4FD491F901E057FF4FC491CC233D
:10120000C9F0162F81110E948908EC2FF0E0EE0F33
:10121000FF1FEC55FF4FA591B4918FB7F8941111B2
:1012200005C09C91ED2FE095E92302C0EC91ED2BD8
:10123000EC938FBFDF91CF911F9108951F920F9272
:101240000FB60F9211242F933F938F939F93AF93D9
:10125000BF938091410190914201A0914301B091CF
:101260004401309140012DE2230F2D3720F40196E7
:10127000A11DB11D05C020EB230F0296A11DB11DBC
:10128000209340018093410190934201A093430138
:10129000B09344018091450190914601A09147018E
:1012A000B09148010196A11DB11D80934501909315
:1012B0004601A0934701B0934801BF91AF919F9120
:1012C0008F913F912F910F900FBE0F901F90189507
:1012D0009FB7F894409145015091460160914701B4
:1012E0007091480186B5A89B06C08F3F21F04F5FE3
:1012F0005F4F6F4F7F4F9FBF762F652F542F44272F
:101300009A01AB01280F311D411D511DA5E0B0E030
:101310000E941B0C0895CF92DF92EF92FF92CF9321
:10132000DF936B017C010E946809EB01C114D104B9
:10133000E104F10479F00E9468096C1B7D0B683EA2
:101340007340A0F381E0C81AD108E108F108C85140
:10135000DC4FECCFDF91CF91FF90EF90DF90CF90FB
:101360000895789484B5826084BD84B5816084BD1D
:1013700085B5826085BD85B5816085BDEEE6F0E00E
:10138000808181608083E1E8F0E01082808182606A
:101390008083808181608083E0E8F0E080818160EB
:1013A0008083E1EBF0E0808184608083E0EBF0E01B
:1013B000808181608083EAE7F0E0808184608083BF
:1013C0008081826080838081816080838081806869
:1013D00080831092C10008950E94B1090E94870085
:1013E000CDECDAE00E946A072097E1F30E94CD0A73
:1013F000F9CFFC0124853585F901E05CFF4F808140
:101400009181329620813181821B930B8F739927B2
:101410000895DC011C96ED91FC911D97DF01A05C05
:10142000BF4F2D913C91119712968D919C911197E0
:101430002817390739F08D919C91E80FF91F8081A9
:1014400090E008958FEF9FEF0895FC01A485B58586
:10145000FD01E05CFF4F20813181329680819181D6
:101460002817390779F080819181A80FB91F8C91D5
:10147000208131812F5F3F4F2F73332731832083AA
:1014800090E008958FEF9FEF0895FC0181A18823DC
:1014900029F0A489B5898C9186FFFBCF11A208950C
:1014A0000F931F93CF93DF93FC01A685B7858D0122
:1014B000005C1F4FE8018881998101968F739927FD
:1014C000AD014E5B5F4FEA01288139818217930796
:1014D000D1F3E80128813981A20FB31F6C93A6854F
:1014E000B785A05CBF4F11969C938E93A689B78950
:1014F0002C9181E090E0078C02C0880F991F0A941C
:10150000E2F7822B8C9381E081A30488F589E02D9A
:1015100080818064808381E090E0DF91CF911F9192
:101520000F91089508951F920F920FB60F921124F4
:101530002F934F935F938F939F93EF93FF9380919C
:10154000C00082FD1CC02091C6008091EF019091E7
:10155000F00101968F7399274091F1015091F201AA
:101560008417950771F0E091EF01F091F001E155DA
:10157000FE4F20839093F0018093EF0102C0809191
:10158000C600FF91EF919F918F915F914F912F91A5
:101590000F900FBE0F901F90189589E491E00E9464
:1015A000F909892B11F00C94920A08951F920F9259
:1015B0000FB60F9211242F933F938F939F93EF9326
:1015C000FF932091AB013091AC018091AD019091DE
:1015D000AE012817390731F48091C1008F7D8093C7
:1015E000C10014C0E091AD01F091AE01E559FE4F8C
:1015F00020818091AD019091AE0101968F73992762
:101600009093AE018093AD012093C600FF91EF91BE
:101610009F918F913F912F910F900FBE0F901F9030
:101620001895CF92DF92EF92FF920F931F93CF9373
:10163000DF93EC016A017B01EC89FD8981E090E098
:1016400008A002C0880F991F0A94E2F7808360EC1B
:1016500076EC8DE290E0A70196010E94F90B8901DA
:101660009A010150110921093109369527951795DD
:10167000079598010115104108F042C0E889F989E1
:101680003083EA89FB89208319A2EE89FF89408192
:1016900081E090E09C010C8C02C0220F331F0A9461
:1016A000E2F7242B2083EE89FF8940819C010D8C79
:1016B00002C0220F331F0A94E2F7242B2083EE8905
:1016C000FF8940819C010E8C02C0220F331F0A94B7
:1016D000E2F7242B2083EE89FF8920810F8C02C042
:1016E000880F991F0A94E2F7809582238083DF9107
:1016F000CF911F910F91FF90EF90DF90CF900895C1
:10170000EC89FD89108260E673EE86E190E0A70126
:1017100096010E94F90BDA01C9010197A109B109EB
:10172000B695A795979587959C01A8CFE9E4F1E038
:101730001382128288EE93E0A0E0B0E08483958368
:10174000A683B78381E191E0918380838FEA91E062
:10175000958784878BE691E09787868785EC90E074
:10176000918B808B84EC90E0938B828B80EC90E06B
:10177000958B848B81EC90E0978B868B82EC90E04C
:10178000918F808F86EC90E0938F828F84E0848F9E
:1017900083E0858F87E0868F85E0878F81E080A357
:1017A0000895CF92DF92EF92FF920F931F93CF9302
:1017B000DF936C01EB017B01E40EF51E00E010E00D
:1017C000CE15DF0561F06991D601ED91FC91019094
:1017D000F081E02DC6010995080F191FF1CFC8014E
:1017E000DF91CF911F910F91FF90EF90DF90CF90FD
:1017F0000895A1E21A2EAA1BBB1BFD010DC0AA1F52
:10180000BB1FEE1FFF1FA217B307E407F50720F069
:10181000A21BB30BE40BF50B661F771F881F991FE4
:101820001A9469F760957095809590959B01AC012D
:10183000BD01CF0108950E942C0CA59F900DB49F6F
:10184000900DA49F800D911D11240895EE0FFF1F90
:101850000590F491E02D0994A29FB001B39FC001BF
:10186000A39F700D811D1124911DB29F700D811DCC
:0A1870001124911D0895F894FFCF94
:10187A000F004109000A000B000C000D00000000D7
:0E188A0000500AD10BF909250A090A450A0087
:00000001FF
